:020000020000FC
:100000000C94380118951895189518951895189509
:100010001895189518951895189518951895189578
:100020001895189518951895189518951895189568
:100030001895189518951895189518951895189558
:100040001895189518951895189518951895189548
:100050001895189518951895189518951895189538
:100060001895189518951895189518951895189528
:100070001895189518951895189518951895189518
:100080001895189518951895189518950A00000157
:1000900000001B2E2A2EF80108811981022E032A46
:1000A00019F0002E012A11F400E00EC0458356839A
:1000B0006783708745E041872183328303831483FC
:1000C00000810160008301E0A22DB12D22960895E8
:1000D0000E947501D8010C9100FFB0C0FD0101859F
:1000E000021709F4ABC02187215041F12A9509F488
:1000F00044C02A9509F460C02A950581168127819C
:10010000308544E009F478C00E944A0140E855E295
:1001100060E070E00E945201C8010197FD01038177
:100120001481F8019083FD010581168127813085B6
:1001300044E00E944A0140E855E25CC00581168116
:100140002781308544E00E944A0140E05BE460E0A2
:1001500070E00E945201C8010197FD0103811481E2
:10016000F8019083FD01058116812781308544E0E7
:100170000E944A0140E05BE43DC005811681278171
:10018000308544E00E944A0140E056E960E070E0BA
:100190000E945201C8010197FD0103811481F801F9
:1001A0009083FD01058116812781308544E00E94FE
:1001B0004A0140E056E91EC005811681278130853D
:1001C00044E00E944A0140E051EE60E070E00E948D
:1001D0005201C8010197FD0103811481F801908348
:1001E000FD01058116812781308544E00E944A0186
:1001F00040E051EE60E01AC00E944A0140E052EC3B
:1002000061E070E00E945201C8010197FD01038185
:100210001481F8019083FD010581168127813085C5
:1002200044E00E944A0140E052EC61E070E00E942C
:1002300052010A95FD01A181B2810C93E4E00C9476
:100240007A0100E910E01A930A9329E230E040E0D5
:1002500050E061EE70E000E011E00E94490020E013
:1002600000E011E00E946800FACF00008895FECF00
:1002700009E40DBF01E00EBFCAE4D3E00E94830190
:10028000002311F00E9493010E9421010E94350178
:100290000C9435014A952AF03695279517950795C0
:1002A000F9CF0895002411241001E0E2EA9592F0BC
:1002B000001F111F221F331F001C111C221C331C86
:1002C000041615062606370688F3041A150A260AA8
:1002D000370AECCF001F111F221F331FA001B101ED
:1002E00000951095209530950895BA93AA939A9306
:1002F0008A930895BB81AA8199818881F0E0EC0FEF
:10030000FD1FEF01089501E0089520E006D0E9F710
:100310000895259102D0E9F708952D9301501040DA
:10032000202F212B08958CE890E0FC010591149179
:10033000FC013296A591B491FC013496259134913B
:10034000422F432B19F0F901E4DF01C0DEDF0696EE
:0A03500010E08239910748F3089588
:0400000300000000F9
:00000001FF
