:020000020000FC
:100000000C944501189518951895189518951895FC
:100010001895189518951895189518951895189578
:100020001895189518951895189518951895189568
:100030001895189518951895189518951895189558
:100040001895189518951895189518951895189548
:100050001895189518951895189518951895189538
:100060001895189518951895189518951895189528
:100070001895189518951895189518951895189518
:100080001895189518951895189518950800000159
:100090000000F801222311F0332311F400E0089549
:1000A000438354836583768305E00783218332830A
:1000B00000810160008301E008950E949C01D80145
:1000C0000C9100FFCCC0FD010781021709F4C7C0E5
:1000D0002783215071F12A9509F450C02A9509F41B
:1000E00072C02A95038114812581368140E150E058
:1000F00060E070E009F48DC00E947A0140E855E2AA
:1001000060E070E00E947A01C8010197FD01028160
:10011000E02FF0E09083FD01038114812581368179
:1001200040E150E060E070E00E947A0140E855E272
:100130006EC0038114812581368140E150E060E08A
:1001400070E00E947A0140E05BE460E070E00E94B1
:100150007A01C8010197FD010281E02FF0E0908350
:10016000FD01038114812581368140E150E060E08A
:1001700070E00E947A0140E05BE449C00381148191
:100180002581368140E150E060E070E00E947A0114
:1001900040E056E960E070E00E947A01C8010197F2
:1001A000FD010281E02FF0E09083FD0103811481C5
:1001B0002581368140E150E060E070E00E947A01E4
:1001C00040E056E924C0038114812581368140E155
:1001D00050E060E070E00E947A0140E051EE60E0A3
:1001E00070E00E947A01C8010197FD010281E02FB1
:1001F000F0E09083FD01038114812581368140E187
:1002000050E060E070E00E947A0140E051EE60E072
:100210001DC00E947A0140E052EC61E070E00E9453
:100220007A01C8010197FD010281E02FF0E090837F
:10023000FD01038114812581368140E150E060E0B9
:1002400070E00E947A0140E052EC61E070E00E94B0
:100250007A010A95FD011181E12FF0E00083E4E0CD
:100260000C94A10130E929E240E050E061EE70E039
:1002700000E011E00E94490020E000E011E00E944F
:100280005D00FACF00008895FECF07E40DBF01E0C6
:100290000EBFC8E4D3E00E94AA01002311F00E941F
:1002A000BA010E9432010E9442010C9442010024D2
:1002B00011241001E0E2EA9592F0001F111F221FA5
:1002C000331F001C111C221C331C041615062606A5
:1002D000370688F3041A150A260A370AECCF001FDE
:1002E000111F221F331FA001B10100951095209509
:1002F00030950895FF27772312F4F16015D033234A
:1003000012F4F09509D00E945701F69508F404D034
:10031000F69508F409C0089530952095109501953B
:100320001F4F2F4F3F4F0895709560955095419501
:100330005F4F6F4F7F4F0895BA93AA939A938A9312
:100340000895BB81AA8199818881F0E0EC0FFD1F9F
:10035000EF01089501E0089520E006D0E9F708953F
:10036000259102D0E9F708952D9301501040202FD8
:10037000212B08958CE890E0FC0105911491FC017B
:100380003296A591B491FC01349625913491422F77
:10039000432B19F0F901E4DF01C0DEDF069610E01F
:0803A0008239910748F308952A
:0400000300000000F9
:00000001FF
