:020000020000FC
:100000000C945301189518951895189518951895EE
:100010001895189518951895189518951895189578
:100020001895189518951895189518951895189568
:100030001895189518951895189518951895189558
:100040001895189518951895189518951895189548
:100050001895189518951895189518951895189538
:100060001895189518951895189518951895189528
:100070001895189518951895189518951895189518
:100080001895189518951895189518950A00000157
:1000900000001B2E2A2EF80108811981022E032A46
:1000A00019F0002E012A11F400E00EC0458356839A
:1000B0006783708745E041872183328303831483FC
:1000C00000810160008301E0A22DB12D22960895E8
:1000D0000E94AA01D8010C9100FFCBC0FD0101854F
:1000E000021709F4C6C02187215071F12A9509F43D
:1000F00050C02A9509F472C02A950581168127817E
:10010000308540E150E060E070E009F48DC00E946D
:10011000880140E855E260E070E00E948801C80173
:100120000197FD0103811481F8019083FD01058190
:1001300016812781308540E150E060E070E00E9448
:10014000880140E855E26EC005811681278130851F
:1001500040E150E060E070E00E94880140E05BE434
:1001600060E070E00E948801C8010197FD010381F1
:100170001481F8019083FD01058116812781308566
:1001800040E150E060E070E00E94880140E05BE404
:1001900049C0058116812781308540E150E060E04B
:1001A00070E00E94880140E056E960E070E00E9443
:1001B0008801C8010197FD0103811481F801908332
:1001C000FD01058116812781308540E150E060E026
:1001D00070E00E94880140E056E924C00581168144
:1001E0002781308540E150E060E070E00E948801A6
:1001F00040E051EE60E070E00E948801C801019784
:10020000FD0103811481F8019083FD0105811681B0
:100210002781308540E150E060E070E00E94880175
:1002200040E051EE60E01DC00E94880140E052ECC9
:1002300061E070E00E948801C8010197FD0103811F
:100240001481F8019083FD01058116812781308595
:1002500040E150E060E070E00E94880140E052EC34
:1002600061E070E00E9488010A95FD01A181B281E0
:100270000C93E4E00C94AF0100E910E01A930A93A8
:1002800029E230E040E050E061EE70E000E011E093
:100290000E94490020E000E011E00E946800FACFCF
:1002A00000008895FECF09E40DBF01E00EBFCAE44F
:1002B000D3E00E94B801002311F00E94C8010E94FF
:1002C0003C010E9450010C945001002411241001A3
:1002D000E0E2EA9592F0001F111F221F331F001C5D
:1002E000111C221C331C041615062606370688F33B
:1002F000041A150A260A370AECCF001F111F221F05
:10030000331FA001B10100951095209530950895F7
:10031000FF27772312F4F16015D0332312F4F09500
:1003200009D00E946501F69508F404D0F69508F40A
:1003300009C0089530952095109501951F4F2F4FB6
:100340003F4F089570956095509541955F4F6F4F61
:100350007F4F0895BA93AA939A938A930895BB8185
:10036000AA8199818881F0E0EC0FFD1FEF010895CB
:1003700001E0089520E006D0E9F70895259102D024
:10038000E9F708952D9301501040202F212B089557
:100390008CE890E0FC0105911491FC013296A59146
:1003A000B491FC01349625913491422F432B19F0DE
:1003B000F901E4DF01C0DEDF069610E08239910723
:0403C00048F3089561
:0400000300000000F9
:00000001FF
